:020000040800F2
:10000000B804002045010008DF1A0008EF190008B5
:10001000DD1A0008A3070008451E000800000000C4
:10002000000000000000000000000000E31A0008CB
:10003000A507000800000000E11A0008E51A000802
:100040005F0100085F0100085F0100085F01000810
:100050005F0100085F0100085F0100085F01000800
:100060005F0100085F0100085F0100085F010008F0
:100070005F0100085F0100085F0100085F010008E0
:100080005F0100085F0100085F0100085F010008D0
:100090005F0100085F0100085F0100085F010008C0
:1000A0005F0100085F0100085F0100085F010008B0
:1000B0005F0100085F0100085F0100085F010008A0
:1000C0005F0100085F0100085F0100085F01000890
:1000D0005F0100085F0100085F0100085F01000880
:1000E0005F0100085F0100085F0100085F01000870
:1000F0005F0100085F0100085F0100085F01000860
:100100005F0100085F010008491B00085F0100084B
:100110005F0100085F0100085F0100085F0100083F
:100120005F0100085F0100085F0100085F0100082F
:10013000DFF80CD000F002FB0048004775270008EC
:10014000B80400200648804706480047FEE7FEE75F
:10015000FEE7FEE7FEE7FEE7FEE7FEE7FEE7FEE777
:10016000471B000831010008202A04DB203A21FA4D
:1001700002F00021704721FA02F3D040C2F12002C0
:100180009140084319467047D2B201E000F8012BB4
:10019000491EFBD270470022F6E710B513460A4607
:1001A00004461946FFF7F0FF204610BD2DE9F04D3B
:1001B00081EA030404F0004B21F0004514464FF09F
:1001C000000A23F0004150EA050220D054EA01025F
:1001D0001DD0C5F30A570246C5F31303C1F313003C
:1001E000C1F30A5640F4801543F48013A7EB0608C8
:1001F000101BD64608F2FD3873EB050002D308F158
:10020000010801E092185B41B8F1000F03DA002009
:100210000146BDE8F08D00204FF48011064684466B
:100220000EE0171B73EB050705D3121B63EB0503E9
:1002300006434CEA010C49084FEA300092185B4132
:1002400050EA0107EDD152EA030012D082EA04001D
:1002500083EA0501084305D0101BAB4106D20122F9
:10026000002306E000224FF0004302E06FF001029D
:1002700053101AEB06004CEB085110EB0A0041EB4F
:100280000B01BDE8F04D00F0B2B8962300221146F4
:1002900000F07FB800F0004230F000400AD0C10DFD
:1002A00001F56071C0F3160042EA0151C20840072F
:1002B0001143704700200146704701F0004330B4FD
:1002C00021F0004150EA010206D00A0DA2F5607249
:1002D000C1F31301002A02DC30BC00207047440F38
:1002E00044EAC104C100E01830BC00EBC25000F089
:1002F00047B830B50B46014600202022012409E012
:1003000021FA02F59D4205D303FA02F5491B04FACE
:1003100002F52844151EA2F10102F1DC30BD2DE9E1
:10032000F05F0546002092469B4688460646814679
:1003300040241BE02846414647462246FFF714FF6B
:1003400053465A46C01A914110D3114618462246C8
:1003500000F006FA2D1A67EB01084F4622460120ED
:10036000002100F0FDF917EB00094E41201EA4F119
:100370000104DFDC484631462A464346BDE8F09F8B
:100380000029A8BF7047401C490008BF20F00100A9
:10039000704710B4B0FA80FC00FA0CF050EA010487
:1003A00004BF10BC704749B1CCF1200421FA04F419
:1003B00011FA0CF118BF012121430843A3EB0C01F2
:1003C000CB1D4FEA00614FEA102042BF002010BC55
:1003D000704700EBC35010440029A4BF10BC704705
:1003E000401C490008BF20F0010010BC704710B548
:1003F000141E73F1000408DA401C41F10001921848
:100400005B411A4301D120F0010010BD2DE9F04DF0
:1004100092469B4611B1B1FA81F202E0B0FA80F245
:100420002032904600F09CF904460F4640EA0A004C
:1004300041EA0B0153465A46084313D0114653EA8A
:10044000010019D0C8F140025046FFF78DFE054665
:100450000E4650465946424600F082F9084305D000
:10046000012004E020463946BDE8F08D0020054318
:1004700046EAE0762C4337430A986305E40AA0EB8A
:1004800008000022FD0A44EA47540A3002D5002041
:100490000146E9E7010510196941DDE90845001940
:1004A0006941BDE8F04DA2E72DE9FE4F804681EAA3
:1004B0000300C00F0C46009021F0004123F00045DE
:1004C000B8EB0200A94105D24046214690461C46A1
:1004D0000B46024623F00040104347D0270DC7F3D8
:1004E0000A00C3F30A510290401A019040286BDAC7
:1004F000C3F3130040F4801B0098924620B1002300
:10050000D2EB030A63EB0B0B01985946C0F1400292
:10051000504600F025F906460D4650465946019AC8
:1005200000F02DF910EB08006141002487EA115218
:1005300084EAE7731A4340D0009A62B3019A012A11
:100540004FEA075215DC001B61EB02014FF000423D
:1005500002EA0752CDE90042001C41F58011324603
:100560002B46FFF753FF03B0BDE8F08F404621460E
:10057000F9E7001B61EB0201001C41F58013001834
:100580005B412018A2F5001747EB030140EAD57044
:10059000B6196D4111E06D084FEA360645EAC0759F
:1005A0004FEA0752001B61EB0201001C41F580116C
:1005B00049084FEA30000019514132462B4603B03A
:1005C000BDE8F04FFFF713BF009801224000002361
:1005D000D0EB020263EBE073009821464FEAE0742F
:1005E000B8EB000061EB0401E9E783F000435BE74F
:1005F00081F0004158E72DE9FE4F81EA030404F041
:10060000004421F0004100944FF0000B23F0004320
:1006100050EA01045ED052EA03045BD0C3F30A54EB
:10062000C1F30A552C44A4F2F3340194A0FB025404
:10063000C1F3130141F48011C3F3130343F4801396
:1006400001FB024400FB034E840A970A44EA8154EA
:1006500047EA8357A4FB076802958D0A05FB0785C7
:100660004FEA932C04FB0C542705029D4FEA0658D1
:1006700047EA1637B5EB08056EEB070C870E920EAE
:1006800047EA811742EA8312A7FB0201B6EB0B018E
:1006900064EB00042B0D43EA0C335E1844EB1C5052
:1006A000DA465146E7FB0201C5F313044FEA0B3368
:1006B00043EA14534FEA0432019C43EA0603A4F1CF
:1006C0000C040294009CCDE900B4FFF79FFE03B038
:1006D000BDE8F08F00200146F9E7C1F30A52C1F3EB
:1006E000130140F2FF3341F480119A4202DA0020F4
:1006F0000146704740F233439A42A2F2334202DC91
:100700005242FFF731BD00F02BB8000030B5041E97
:1007100071F1000404DB4FF00044404264EB01013E
:10072000141E73F1000405DB1C464FF000435242D7
:1007300063EB0403994208BF904230BD064C074D5D
:1007400006E0E06840F0010394E8070098471034A1
:10075000AC42F6D3FFF7F0FCD8290008F8290008CE
:10076000202A04DB203A00FA02F100207047914071
:10077000C2F1200320FA03F3194390407047202A66
:1007800006DBCB17203A41FA02F043EAE07306E0B9
:1007900041FA02F3D040C2F12002914008431946C9
:1007A0007047FEE7704772B6FEE700002DE9F84F8C
:1007B000DFF8C891002409F1040A0AF1040B23466A
:1007C0000F270BF1040ED1E00125A54006EA050232
:1007D000AA4276D1DFF8A8C14E68A6EB0C086645A0
:1007E0002BD00DDC032E34D005DC36B3012E19D00E
:1007F000022E2FD11BE0112E16D0122E2AD119E075
:10080000B8F5881F19D006DCB8F5803F15D0B8F5CB
:10081000801F1FD111E0B8F5001F0ED0B8F5041FDE
:1008200018D10AE0CB6815E0CB681B1D12E0CB683D
:1008300008330FE0CB680C330CE08B682BB1012B35
:100840004FF0080303D0456104E0042302E0056192
:1008500000E00023FF2A01D8064601E000F104066B
:100860004FEA840501D9A5F12005D6F8008007FAE2
:1008700005FC28EA0C0803FA05F548EA0508C6F85D
:1008800000804D68ED0070D53E4DAE6946F0010622
:10089000AE61AD6924F0030605F0010500953A4DFF
:1008A00006EB050CDCF80850A607360F07FA06F829
:1008B00025EA0805DFF8D480404503D14FF0000851
:1008C00025E052E0DFF8C880404502D14FF0010832
:1008D0001DE0DFF8C080404502D14FF0020816E06D
:1008E000DFF8B480404502D14FF003080FE0DFF895
:1008F000AC80404502D14FF0040808E0DFF8A0804A
:10090000404502D14FF0050801E04FF0060808FA13
:1009100006F848EA0508CCF808804D68D9F8006068
:10092000ED034D4601D5164300E096432E604D6819
:10093000DAF80060AD03554601D5164300E0964352
:100940002E604D68DBF80060ED025D4601D5164370
:1009500000E096432E604D68DEF80060AD027546FB
:1009600001D5164300E096432E60641C0A681646C3
:10097000E2407FF429AFBDE8F88F00000004014099
:10098000000011100010024000000140000801406A
:10099000000C01400010014000140140001801400B
:1009A000001C0140014880687047000008000020DA
:1009B0000248816802781144816070470800002075
:1009C000074810B5016841F010010160032000F0F4
:1009D00075F8002000F006F800F024F8002010BDA3
:1009E0000020024070B50D4D04464FF47A7128780E
:1009F000B1FBF0F00A490968B1FBF0F000F0ECFA45
:100A000048B9102C07D200222146501E00F036F8BB
:100A100000206C6070BD012070BD00000800002047
:100A2000140000200C4808B5816941F00101816182
:100A3000816901F001010091C16941F08051C161FA
:100A4000C06900F0805000900448416821F0E061E6
:100A500041F08061416008BD00100240000001408B
:100A6000002809DB00F01F020121914040098000AD
:100A700000F1E020C0F8001170470000F0B40E4B08
:100A80001B680C46C3F30223C3F10705042D00D9EC
:100A90000425191D072901D2002300E0DB1E0126D1
:100AA00006FA05F1491E214099409E40761E1640E7
:100AB0003143F0BC01F0D8B90CED00E0064900F07C
:100AC000070208684FF6FF03184040EA0220034A75
:100AD00010430860704700000CED00E00000FA05CC
:100AE0002DE9F0470F46050061D0434E306800F015
:100AF0000700B84209D2306820F007003843306060
:100B0000306800F00700B84251D128683B4C81079B
:100B100012D5400703D5606840F4E0606060287833
:100B2000000703D5606840F4605060606068A968A1
:100B300020F0F000084360602878C00728D068687B
:100B4000012810D02168022810D0890700292EDA48
:100B5000616821F0030101436160FFF723FF8046D4
:100B600041F288390DE021688903EFE78901EDE75B
:100B7000FFF718FFA0EB0801494502D90320BDE8A3
:100B8000F0876068696800F00C00B0EB810FEFD16E
:100B9000306800F00700B8420BD9306820F0070039
:100BA00038433060306800F00700B84201D00120BF
:100BB000E5E72878400705D56068E96820F4E0603B
:100BC000084360602878000706D56068296920F42A
:100BD000605040EAC100606000F038F86168084A7F
:100BE000C1F30311515CC84006490860064800681B
:100BF000FFF7F8FE0020C2E700200240001002408C
:100C000014290008140000200C00002004480549A5
:100C100000684968044AC1F30221515CC84070472A
:100C2000140000200010024024290008044805494F
:100C300000684968044AC1F3C221515CC84070474A
:100C400014000020001002402429000812A185B0E1
:100C50000FC98DE80F0014A0144A00680490516871
:100C6000134801F00C03042B10D0082B0ED1C1F354
:100C70008343C9031DF803000AD5516804AAC1F3D0
:100C80004041515C0A4A5043B0FBF1F005B0704757
:100C900008494843FAE7000002030405060708096B
:100CA0000A0B0C0D0E0F1010010200000010024084
:100CB00000127A0000093D002DE9F84F040070D0C1
:100CC0002078C04DC00749D06868C0F38100012872
:100CD00007D06868C0F38100022809D16868C003A2
:100CE00006D52868800339D560680028E7D035E04C
:100CF0006068B0F5803F0BD010B1B0F5A02F11D0D7
:100D0000286820F480302860286820F4802002E0E1
:100D1000286840F480302860606890B1FFF742FE98
:100D200006460AE0286840F480202860F0E700BF0B
:100D3000FFF738FE801B642873D828688003F7D536
:100D40000CE0FFF72FFE064605E000BFFFF72AFE86
:100D5000801B6428F0D828688003F7D420789A4E46
:100D600080074FF001094FF0000839D5686810F08E
:100D70000C0F07D06868C0F38100022809D16868A9
:100D8000C00306D42868800714D52069012808D13B
:100D900010E02069B0B1C6F80090FFF703FE0746E7
:100DA00005E00AE1FFF7FEFDC01B0228C4D8286851
:100DB0008007F7D52868616920F0F80040EAC10093
:100DC00028600DE0C6F80080FFF7ECFD074604E060
:100DD000FFF7E8FDC01B022823D828688007F7D456
:100DE000207800072CD57948A169D9B1C0F80090C6
:100DF000FFF7D8FD074604E0FFF7D4FDC01B02282B
:100E00000FD8686A8007F7D571484FF4FA51006827
:100E1000B0FBF1F0009000BF0098411E0091FAD2A3
:100E20000EE080E0C0F80080FFF7BCFD074604E05C
:100E3000FFF7B8FDC01B022875D8686A8007F7D491
:100E40002078400760D5E8690027C00008D4E86929
:100E500040F08050E861E869012700F08050009080
:100E60005C480168C90513D40168834641F4807168
:100E70000160FFF797FD824606E000BFFFF792FD95
:100E8000A0EB0A0064284ED8DBF80000C005F5D5B9
:100E9000E06801280AD008B1052813D0286A20F09C
:100EA00001002862286A20F0040002E0286A40F06D
:100EB00001002862E06841F2883B98B1FFF772FDBB
:100EC00082460BE0286A40F004002862EEE700BF8B
:100ED000FFF768FDA0EB0A0159455AD8286A800738
:100EE000F6D50CE0FFF75EFD824605E0FFF75AFD00
:100EF000A0EB0A0159454CD8286A8007F6D41FB1E7
:100F0000E86920F08050E861E06988B36968C1F35E
:100F10008101022944D00228C6F8608004D0FFF77E
:100F200041FD044638E034E0FFF73CFD074604E0AD
:100F3000FFF738FDC01B02282BD828688001F7D4A2
:100F4000206AB0F5803F05D16868A16820F40030C0
:100F500008436860D4E908010843696821F4741102
:100F600008436860C6F86090FFF71CFD044606E081
:100F700025E000BFFFF716FD001B022809D82868EE
:100F80008001F7D51BE000BFFFF70CFD001B022816
:100F900002D90320BDE8F88F28688001F4D40EE060
:100FA0000128F7D06868226A00F48031914204D1A8
:100FB000616A00F47010884201D00120EAE7002045
:100FC000E8E7000000100240000042428004424274
:100FD000140000200070004010B5401EB0F1807F6A
:100FE00001D3012010BD4FF0E02460610F21601794
:100FF00000F03AFF0020A06107202061002010BD12
:101000007047704770B590F83C20012A2CD001241D
:1010100080F83C40022280F83D2003685A689D68B1
:1010200022F070060A6832435A60104B02689A42F6
:101030000ED00F4B9A420BD0B2F1804F08D00D4B1F
:101040009A4205D00C4B9A4202D00C4B9A4204D1E2
:10105000496825F080031943916080F83D400021E4
:1010600080F83C10084670BD022070BD002C014085
:10107000003401400004004000080040000C004023
:1010800010B5040003D094F83D0010B107E0012032
:1010900010BD002084F83C00204600F01FF802201C
:1010A00084F83D00211D206800F064FD012084F8D3
:1010B000460084F83E0084F83F0084F8400084F83D
:1010C000410084F8420084F8430084F8440084F826
:1010D000450084F83D00002010BD000000B585B03B
:1010E0000021009101910291039100681249884208
:1010F00020D11248C16941F00801C161C16901F004
:1011000008010491816941F00401816180696946A7
:1011100000F0040004900120009002200290084892
:10112000FFF744FB002211463220FFF7A7FC3220D4
:10113000FFF796FC05B000BD000C00400010024017
:101140000008014090F83D10012901D001207047AE
:10115000022180F83D100168CA6842F00102CA60AD
:1011600000680E4988420ED00D4988420BD0B0F17C
:10117000804F08D00B49884205D00B49884202D0E5
:101180000A49884204D1816801F00701062903D089
:10119000016841F00101016000207047002C01400E
:1011A000003401400004004000080040000C0040F2
:1011B0000168CA6822F00102CA6001680A6A41F245
:1011C00011131A4207D10A6A9B101A4203D10A6806
:1011D00022F001020A60012180F83D1000207047D2
:1011E00070B5044690F83C00012817D0012584F81A
:1011F0003C50022084F83D002068826822F077028B
:1012000022F47F4282600868502830D00DDC20280C
:101210004DD005DC98B310283BD148E0022070BDCA
:10122000302844D0402834D139E0602828D07028B4
:1012300006D0B0F5805F2CD0B0F5005F29D10AE070
:10124000CB68D1E90121206800F0E7FC20688168C3
:1012500041F0770109E0CB68D1E90121206800F075
:10126000DCFC2068816841F48041816011E0CA683B
:101270004968206800F0E3FC5021206807E016E090
:10128000CA684968206800F021FD6021206800F0EC
:10129000CEFC84F83D50002084F83C0070BDCA6844
:1012A0004968206800F0CBFC40212068EFE7226805
:1012B00001461046EBE7000070B524490646006879
:1012C0000968884240D1224C2078204D0C3D0128ED
:1012D0001AD0022826D0032836D11EA000F0B4FD73
:1012E00020A000F0B1FD0021304600F0A7FA6168AF
:1012F000C1EB01410844A8600021304600F098F994
:101300001248FFF755FF1CE026A000F09DFD0021CC
:10131000304600F093FA6168C1EB0141084428604F
:1013200002200CE024A000F08FFD0021304600F0E8
:1013300085FA6168C1EB014108446860002000F053
:1013400009FC2078401C207070BD0000280000209F
:1013500000000020B2B6BBF1BDE1CAF82E2E2E0D62
:101360000A0000002320656E64202D2D2D2D2D2DCB
:101370002D2D2D2D2D2D2D2D2D2D2D2D2D2D2D2D9D
:101380002D2D2D2D2D2D2D2D2D2D2D2D2D2D2D2D8D
:101390002D2D2D2D2D2D2D2D2D2D2D2D2D2D0D0AC0
:1013A00000000000D7BCB1B8B2B6BBF1CFC2BDB52A
:1013B000D1D82E2E2E0D0A00D7BCB1B8B2B6BBF1D3
:1013C000CFC2B8F6C9CFC9FDD1D82E2E2E0D0A0036
:1013D0002DE9F041054690F83C000C46012836D036
:1013E000012085F83C008AB3042A42D02868082AE4
:1013F00051D0D4E90023E168066A26F480560662DB
:10140000C669076A26F4407646EA03234FF6FF765C
:1014100006EA013123F4704319434FF4005627F4D0
:10142000005306EA02321A43C16102622868C169A8
:1014300021F44061C1612868C169A26841EA0221C2
:10144000C161002085F83C00BDE8F08101E0022088
:10145000FAE7D4E90012E368286800F001FC286884
:10146000816921F00C01816128688169A2681143BA
:101470000FE0D4E90012E368286800F039FC28681E
:10148000816921F44061816128688169A26841EA2B
:1014900002218161D5E7D4E90027267B016A21F486
:1014A00080710162C169036A21F00301394321F0AF
:1014B000F00731074FF4007647EA116123F4007317
:1014C00006EA02221A43C16102622868C16921F05A
:1014D0000C01C1612868C169A2681143B0E710B569
:1014E000040003D094F83D0010B107E0012010BDC6
:1014F000002084F83C00204600F01EF8022084F80A
:101500003D00211D206800F035FB012084F84600D5
:1015100084F83E0084F83F0084F8400084F84100DD
:1015200084F8420084F8430084F8440084F84500BD
:1015300084F83D00002010BD7047000010B504463F
:1015400051B104290DD0082910D094F8410094F825
:101550004520012811D10EE094F83E0094F8422075
:10156000F7E794F83F0094F84320F2E794F840003E
:1015700094F84420EDE7012A01D0012010BD02209B
:1015800051B1042911D0082918D084F8410084F8F9
:1015900045000C291BD13CE084F83E0084F8420051
:1015A0002068C26842F0020210E084F83F0084F82C
:1015B00043002068C26842F0040207E084F840005B
:1015C00084F844002068C26842F00802C260012228
:1015D000206800F015FB1149206888420ED01049A0
:1015E00088420BD0B0F1804F08D00E49884205D018
:1015F0000D49884202D00D49884204D1816801F02A
:101600000701062903D0016841F0010101600020B3
:1016100010BD2068C26842F01002D7E7002C0140DC
:10162000003401400004004000080040000C00406D
:1016300030B5044600680D0006D0042D08D0082DF2
:1016400028D00C2D08D129E0C16821F0020102E068
:10165000C16821F00401C16000222946206800F021
:10166000CFFA2068016A41F21112114207D1016AD2
:101670009210114203D1016821F0010101600120A3
:1016800085B1042D11D0082D12D004F8410F20711E
:10169000002030BDC16821F00801DCE7C16821F0FD
:1016A0001001D8E704F83E0FF1E704F83F0FEEE72A
:1016B00004F8400FEBE770B50446006801694FF08D
:1016C0000005C943890715D4C168C943890711D4E6
:1016D000E91E01610120207720688069800720468B
:1016E00002D0FFF7E9FD04E000F098F8204600F092
:1016F00096F8257720680169C943490717D4C1685E
:10170000C943490713D46FF0040101610220207717
:101710002068806910F4407F204602D0FFF7CCFD9E
:1017200004E000F07BF8204600F079F82577206887
:101730000169C943090716D4C168C943090712D40E
:101740006FF008010161042020772068C0698007DC
:10175000204602D0FFF7B0FD04E000F05FF820461D
:1017600000F05DF8257720680169C943C90617D4E0
:10177000C168C943C90613D46FF010010161082084
:1017800020772068C06910F4407F204602D0FFF720
:1017900093FD04E000F042F8204600F040F8257781
:1017A00020680169C943C90708D1C168C943C9078D
:1017B00004D1891E0161204600F032F820680169D9
:1017C000C943090609D4C168C943090605D46FF0A5
:1017D000800101612046FFF713FC20680169C943BD
:1017E000490609D4C168C943490605D46FF04001D0
:1017F0000161204600F037F820680169C943890675
:101800000BD4C168C943890607D46FF02001016178
:101810002046BDE87040FFF7F4BB70BD70477047CD
:10182000044900680968884203D103484168491C9B
:101830004160704728000020000000200246002080
:1018400041B1042909D008290AD00C2901D1106816
:10185000006C70471068406B70471068806B704771
:101860001068C06B7047704770B5040004D094F8DE
:101870003D00002510B106E0012070BD84F83C5009
:10188000204600F023F8242084F83D002068C16839
:1018900021F40051C160204600F046FA2068016939
:1018A00021F4904101612068416921F02A014161E0
:1018B0002068C16841F40051C1602564202084F88B
:1018C0003D0084F83E00002070BD000030B585B0BA
:1018D00000240094019402940394006814498842FF
:1018E00024D11448816941F480418161816901F406
:1018F00080410491816941F00401816180690E4D4C
:1019000000F0040004904FF4007000900220019059
:101910000320039069462846FEF748FF2815CDE9C5
:101920000004694628460294FEF740FF05B030BD2A
:101930000038014000100240000801402DE9F84342
:10194000044690F83D001F4616460D4620284CD10F
:10195000C5B1BEB194F83C00012846D0012084F8FE
:101960003C004FF00008C4F84080212084F83D007E
:10197000FFF718F8A6848146E684A068B0F5805F7A
:1019800003D004E00120BDE8F883206928B12E4689
:101990005FF0000584F83C800EE00026FAE7802125
:1019A000204600F01DFAA0B9AEB116F8010B21686F
:1019B0004860E08C401EE084E08C4B464FF0000213
:1019C00000970028EBD14FF04001204600F008FAC4
:1019D00030B10320D7E735F8020BC0F30800E6E783
:1019E000202084F83D000020CDE70220CBE7FEE771
:1019F000054808B5816941F004018161806900F002
:101A00000400009008BD00000010024010B58AB02C
:101A10000024234804940594069407940894099498
:101A20000094019402941D49039401604721C0E988
:101A300001144FF6FF71C0E9031480218161FFF7A3
:101A40001FFB08B1FEF7AFFE4FF48050049004A9CD
:101A50001348FFF7C5FB08B1FEF7A5FE1048FFF7D6
:101A60003EFD08B1FEF79FFE089408A90C480994B2
:101A7000FFF7C8FA08B1FEF796FE0120CDE9004055
:101A800002940022694606480394FFF7A1FC00284F
:101A900001D0FEF788FE0AB010BD0000000C004027
:101AA000280000200C4810B50A4901604FF4E131CC
:101AB0004160002181600C22C160C0E90412816193
:101AC000C161FFF7D1FE002803D0BDE81040FEF74A
:101AD0006ABE10BD0038014070000020FEE7FEE73E
:101AE00070477047FEF764BF30B58FB02821684655
:101AF000FEF751FB14210AA8FEF74DFB0121080453
:101B0000CDE900100024029402250491CDE907508C
:101B10004FF4E01009906846FFF7CEF808B172B6AE
:101B2000FEE70F20CDE90A054FF48060CDE90C40B7
:101B300002210AA80E94FEF7D3FF002801D072B646
:101B4000FEE70FB030BD70470148FFF7B4BD00009D
:101B50002800002006490A68136A23F00A0313626A
:101B600009680A6A00F00A0002430A62704700002E
:101B700028000020F0B502681C4B1D4D1D4E1E4F65
:101B80001E4C4FF0804C984209D0A04207D06045CF
:101B900005D0A84203D0B04201D0B84204D122F00F
:101BA000700E4A6842EA0E02984209D0A04207D05D
:101BB000604505D0A84203D0B04201D0B84203D15D
:101BC00022F44075CA682A434D6922F080022A43F4
:101BD00002608A68C2620A688262984201D0A042AA
:101BE00001D10969016301214161F0BD002C01406F
:101BF0000004004000080040000C00400034014098
:101C000010B501F01F030121046A99408C4304625E
:101C1000016A9A401143016210BD10B5846842EA1E
:101C2000032224F47F440A432243826010BD826869
:101C300022F070020A4342F007018160704710B53C
:101C4000036A046A24F001040462846924F0F00445
:101C500044EA021423F00A020A438461026210BDBE
:101C600070B5046A24F0010404628469056A124EA6
:101C7000B0420ED0114EB0420BD0B0F1804F08D020
:101C80000F4EB04205D00F4EB04202D00E4EB042C1
:101C900003D124F00304144301E044F001041A07C3
:101CA00024F0F00444EA126225F00A0301F00A016C
:101CB00019438261016270BD002C01400034014073
:101CC0000004004000080040000C004010B5036A0A
:101CD00023F0100303628369046A23F4704343EA28
:101CE000023224F0A00343EA01118261016210BDB7
:101CF00030B5046A24F0100404628469056A24F48F
:101D0000407444EA022222F470444FF6FF7202EA61
:101D100003322243A02425F0A00304EA0111194351
:101D20008261016230BD000070B50446006801693F
:101D3000E26821F44051114301612169A068084320
:101D4000616908432168CA6841F20C639A430243FF
:101D5000CA6020684169A26921F440711143416160
:101D60001E492068884202D1FEF760FF01E0FEF7BD
:101D70004DFF00EBC00101EB0012606864218000A0
:101D8000B2FBF0F3B3FBF1F36FF018067343B2FB51
:101D9000F0F5B2FBF0F605EB8305322303EB0515F6
:101DA000B5FBF1F5B6FBF1F605F0F00505EB061510
:101DB000B2FBF0F6B2FBF0F0B0FBF1F06FF01802FE
:101DC000504306EB800003EB0010B0FBF1F02168FC
:101DD00000F00F002844886070BD0000003801400A
:101DE0002DE9F041984617460E460446069D1DE033
:101DF000681C1BD02DB1FEF7D5FDA0EB0800A84252
:101E000014D92068C16821F4D071C160206841698B
:101E100021F001014161202084F83D0084F83E005A
:101E2000002084F83C000320BDE8F08120680068B1
:101E300036EA000004D00020B842D9D00020F3E7F1
:101E40000120F9E7FEE700000FB4054B10B503A928
:101E5000044A029800F0EAF810BC5DF814FB000098
:101E60005D270008180000200907090E002804DB80
:101E700000F1E02080F80014704700F00F0000F13E
:101E8000E02080F8141D704702E008C8121F08C146
:101E9000002AFAD170477047002001E001C1121FEB
:101EA000002AFBD1704700002DE9FF5F82B00021BE
:101EB000DDE90430020DDDF840B0034318D044F6EC
:101EC0001050A2F2FF3242431514119801281FD07E
:101ED000A5EB0B00401C5FEA000A4FF000064E4FD6
:101EE000DFF83891B046504615D5CAF1000413E02A
:101EF000119801244AA3012801D16FEA0B0102982D
:101F0000119AC0E90031C0E9024206B0BDE8F09F75
:101F1000CBF10000DFE704460021404A491842EBBC
:101F20000450CDE9001012E0E00707D032463B46EE
:101F300040464946FEF75FFB8046894632463B46AF
:101F400010461946FEF757FB06460F466410002C54
:101F5000EAD1DDE90401DDE90023BAF1000F06DA78
:101F6000FEF749FB42464B46FEF745FB05E0FEF710
:101F70001DF942464B46FEF719F904460E4600226B
:101F8000284BFEF7C3FB03D84FF0FF30014607E0B4
:101F90000022254B20463146FEF786FAFEF79DFBD0
:101FA000102409E0002C0ADB0A220023FEF7B7F90F
:101FB000039B30321A55641E50EA0102F2D1641CB0
:101FC000039AC4F111031444119A012A03D0012287
:101FD00008430DD10AE0084304D000204FF0110B54
:101FE000119072E7A3EB0B056D1E0DE05B4504DD60
:101FF0004FF0000205F1010504E003DA4FF00002A2
:10200000A5F10105002AECD002981199C0E902312E
:10201000C0E9004579E70000000014400000F03FEF
:10202000300000000000F0430000E03F2DE9FF4FCA
:1020300095B09B468946064600250FE2252877D1B4
:1020400000242746F84A0121059400E0044316F8CD
:10205000013F203B01FA03F01042F7D130782A28E3
:1020600011D06FF02F033078A0F13002092A16D872
:10207000059A44F0020402EB820203EB4202104490
:10208000761C0590EFE759F8042B0592002A03DA35
:10209000504244F40054059044F00204761C307819
:1020A0002E2816D116F8010F44F004042A280DD06A
:1020B0006FF02F023078A0F13003092B09D807EB1D
:1020C000870302EB4303C718761CF3E759F8047B38
:1020D000761C30786C280FD006DC4C2817D0682886
:1020E0000DD06A2814D104E0742810D07A280FD1BA
:1020F0000DE044F400140AE044F4801401E044F4D8
:1021000040147278824202D104F58014761C761C49
:10211000307866280BD013DC582877D009DC0028EB
:1021200075D04528F6D04628F4D047281AD19DE12D
:1021300018E0632835D0642879D0652812D195E15C
:10214000702873D008DC6728F1D069286FD06E281A
:102150000DD06F2806D1B5E073282CD0752875D026
:10216000782874D05A46179990476D1C75E1C4F3CE
:102170000250022809D003280DD0D9F800100428F5
:102180000DD00D6009F1040967E1D9F80010EA17D4
:10219000C1E90052F6E7D9F800100D80F2E70D70A2
:1021A000F0E719F8041B8DF8001000208DF80100ED
:1021B000EA46012003E059F804AB4FF0FF30610715
:1021C0004FF0000102D40DE008F101018846B94248
:1021D0000FDA8045F8DB1AF808100029F4D108E07E
:1021E00008F1010188468142FADB1AF8081000293B
:1021F000F6D105985B46A0EB080721463846179AAA
:1022000000F094FA284400EB080507E04DE029E1CE
:102210000DE01AF8010B5A4617999047B8F10108DA
:10222000F7D25B4621463846179A13E142E00A226C
:102230000092C4F302524FF0000A022A08D059F863
:1022400004CB032A4FEAEC710AD00DE029E02AE022
:1022500009F1070121F00702F2E802C1914609E005
:102260000FFA8CFC4FEAEC71042A03D14FFA8CFC74
:102270004FEAEC71002907DA0A460021DCF1000C74
:1022800061EB02012D2202E0220504D52B228DF8FC
:102290000420012203E0E20701D02022F7E7904664
:1022A00059E00A2102E010220DE010214FF0000A4F
:1022B00000910BE010224FF0000A44F004040827BC
:1022C000009203E008224FF0000A0092C4F3025289
:1022D000022A05D059F804CB0021032A08D009E0CE
:1022E00009F1070121F00702F2E802C1914605E079
:1022F0001FFA8CFC042A01D10CF0FF0C4FF00008EF
:10230000220728D5702806D0009B83F0100353EADB
:102310000A0305D00EE040228DF80420012208E0D7
:102320005CEA010206D030228DF804208DF8050009
:1023300002229046009B83F0080353EA0A030AD165
:102340005CEA010201D1620705D530228DF8042034
:102350004FF001087F1E582804D034A003900EA827
:1023600002900DE036A0F9E753466046009AFDF76B
:10237000D6FF84460398825C0298401E0290027049
:102380005CEA0100F0D1029806A9081A00F1200ABF
:10239000600702D524F4803400E00127574502DDB0
:1023A000A7EB0A0000E0002000EB0A01009005986E
:1023B0004144401A0590E00306D45B462146179A33
:1023C000059800F0B3F90544002706E001A85A4635
:1023D000C05D179990476D1C7F1C4745F6DBE003F5
:1023E0000CD55B462146179A059800F09FF90544E5
:1023F00004E030205A46179990476D1C0099481EFA
:1024000000900029F5DC08E0029802995A4600780D
:10241000491C0291179990476D1CBAF10001AAF16D
:10242000010AF1DC65E10000092801003031323396
:102430003435363738396162636465660000000000
:1024400030313233343536373839414243444546EA
:102450000000000000F058F90544761C3078002890
:102460007FF4ECAD19B02846BDE8F08F620700D4C8
:10247000062709F1070222F0070CFCE80223E146D7
:1024800003F000485FEA080C02D00FF2702C0DE058
:102490005FEA045C02D50FF2682C07E05FEAC47CB7
:1024A00002D00FF2602C01E0AFF2700C4FF0FF3859
:1024B00023F00043CDF850C065280CD006DC452839
:1024C00009D046281DD047283DD13DE0662818D0C8
:1024D00067287ED138E00021112F01DB112000E0B8
:1024E000781CCDE9000106A90EA8FFF7DDFCDDE9A7
:1024F0000F010E9A03910021009207F1010A049145
:102500004DE04FF000400097CDE9011006A90EA85C
:10251000FFF7CAFCDDE90F0203920E9B119900221E
:10252000DDF80CA00093049211B9791C00EB010AAC
:10253000B7EB0A0004D4C0F1FF3007F1010A0490A0
:10254000AAEB0700019044E0012F00DA01270021E7
:10255000112F01DD112000E03846CDE9000106A968
:102560000EA8FFF7A1FCDDE90F010E9A03910021EF
:1025700004910092BA4621070CD40399514500DA20
:102580008A46BAF1010F05DD009AAAF10101515CFA
:10259000302908D0B84202DA10F1040F06DA01211E
:1025A000CDE9011015E0AAF10101E9E7002805DCF9
:1025B000049901440491AAEB000102E0411C514539
:1025C00000DD8A460499401A401C01904FF00040FB
:1025D0000290200704D40198504501DBCDF8048017
:1025E00000208DF84F0002980DF14F07B0F1004F19
:1025F00025D02B200E9002984FF0020800280CDA0C
:10260000404202902D200E9007E00A210298FDF72B
:1026100070FE3031029007F8011DB8F10001A8F1F9
:102620000108F2DC02980028EFD1791E0E9808709C
:10263000307800F0200040F0450007F8020D12A8A5
:10264000C01B00F107081498007800B1012000EBCE
:102650000A01019801EBE07105984144401A401EBF
:102660000590E00306D45B462146179A059800F0D2
:102670005DF805441498007818B15A4617999047A8
:102680006D1CE00324D55B462146179A059800F09F
:102690004DF805441CE00498002807DBDDE9030140
:1026A000884203DD0098405C179901E017993020BB
:1026B0005A469047049805F10105401C0490019882
:1026C000401E019004D12E205A46179990476D1C48
:1026D000BAF10001AAF1010ADDDC05E017F8010BEF
:1026E0005A46179990476D1CB8F10001A8F10108EE
:1026F000F4DC5B462146179A0598ABE62D000000F6
:102700002B000000200000002DE9F04104460025C8
:102710001E461746880404D405E039462020B047F9
:102720006D1C641EF9D52846BDE8F0812DE9F04105
:10273000044600251E469046C80301D5302700E018
:102740002027880404D505E041463846B0476D1C73
:10275000641EF9D52846BDE8F081000013B54FF698
:10276000FF73012269460248FFF7E8F800981CBD94
:1027700070000020FEF724F9FFF7B6F9FFF738F9EB
:10278000FFF744F9FFF78EF9314CDFF8C8904FF0AE
:10279000000A2078002839D00428FAD1D9E900129B
:1027A000D9F80800571A451A2846FDF76EFDFDF7BF
:1027B00071FD0022284BFDF7F9FC02460B46002074
:1027C0002649FDF7F3FCFDF778FD064684F800A0E6
:1027D00023A0FFF739FB2448FFF736FB4FF47A7844
:1027E000B7FBF8F121A0FFF72FFBB5FBF8F125A00F
:1027F000FFF72AFB3046FDF74DFD02460B4627A0AA
:10280000FFF722FB2B48FFF71FFBC2E72AA0FFF7C9
:102810001BFB39A0FFF718FB3C49C1F800A03C495D
:102820000968C1F824A0C9F800A0C9F804A00020D4
:10283000C9F808A0FFF78EF93548FEF783FC0021A0
:102840003348FEF77BFE2078401C2070A1E7000093
:10285000000000201C00002080842E410000F03F7A
:102860000D0A0D0A0000000084290008B8DFB5E752
:10287000C6BDB3D6D0F8CAB1BCE4A3BA25646D73A3
:102880000D0A0000D6DCC6DA2020202020202020DF
:102890002020A3BA25646D730D0A0000C6B5C2CA14
:1028A00020202020202020202020A3BA2566487A3E
:1028B0000D0A00002C290008232073746172742013
:1028C0002D2D2D2D2D2D2D2D2D2D2D2D2D2D2D2D38
:1028D0002D2D2D2D2D2D2D2D2D2D2D2D2D2D2D2D28
:1028E0002D2D2D2D2D2D2D2D2D2D2D2D2D2D2D2D18
:1028F0002D2D2D2D0D0A0000D7BCB1B8B2B6BBF1FD
:10290000C9CFC9FDD1D82E2E2E0D0A0004000020FB
:102910002800002000000000000000000102030465
:1029200006070809000000000102030423232323F3
:102930002323232323232323232323232323232367
:102940002323232323232323232323232323204538
:102950004E442023232323232323232323232323FE
:102960002323232323232323232323232323232337
:10297000232323232323232323232323230D0A0D6C
:102980000A00000023232323232323232323232399
:102990002323232323232323232323232323232307
:1029A000232323232320535441525420232323231E
:1029B00023232323232323232323232323232323E7
:1029C00023232323232323232323232323232323D7
:1029D00023232323230D0A00F829000800000020E8
:1029E0001C000000881E0008142A00081C0000209B
:1029F0009C040000981E0008000000000000000079
:102A00000100000010000000000000000024F4009D
:042A100000000000C2
:0400000508000131BD
:00000001FF
